{
  "_format": "hh-sol-artifact-1",
  "contractName": "Voting",
  "sourceName": "contracts/Voting.sol",
  "abi": [
    {
      "inputs": [],
      "stateMutability": "nonpayable",
      "type": "constructor"
    },
    {
      "anonymous": false,
      "inputs": [
        {
          "indexed": false,
          "internalType": "uint256",
          "name": "candidateId",
          "type": "uint256"
        },
        {
          "indexed": false,
          "internalType": "string",
          "name": "name",
          "type": "string"
        }
      ],
      "name": "CandidateAdded",
      "type": "event"
    },
    {
      "anonymous": false,
      "inputs": [
        {
          "indexed": false,
          "internalType": "address",
          "name": "voter",
          "type": "address"
        },
        {
          "indexed": false,
          "internalType": "uint256",
          "name": "candidateId",
          "type": "uint256"
        }
      ],
      "name": "VoteCasted",
      "type": "event"
    },
    {
      "anonymous": false,
      "inputs": [],
      "name": "VotingEnded",
      "type": "event"
    },
    {
      "anonymous": false,
      "inputs": [],
      "name": "VotingStarted",
      "type": "event"
    },
    {
      "inputs": [
        {
          "internalType": "string",
          "name": "_name",
          "type": "string"
        }
      ],
      "name": "addCandidate",
      "outputs": [],
      "stateMutability": "nonpayable",
      "type": "function"
    },
    {
      "inputs": [],
      "name": "admin",
      "outputs": [
        {
          "internalType": "address",
          "name": "",
          "type": "address"
        }
      ],
      "stateMutability": "view",
      "type": "function"
    },
    {
      "inputs": [
        {
          "internalType": "uint256",
          "name": "",
          "type": "uint256"
        }
      ],
      "name": "candidates",
      "outputs": [
        {
          "internalType": "uint256",
          "name": "id",
          "type": "uint256"
        },
        {
          "internalType": "string",
          "name": "name",
          "type": "string"
        },
        {
          "internalType": "uint256",
          "name": "voteCount",
          "type": "uint256"
        }
      ],
      "stateMutability": "view",
      "type": "function"
    },
    {
      "inputs": [],
      "name": "candidatesCount",
      "outputs": [
        {
          "internalType": "uint256",
          "name": "",
          "type": "uint256"
        }
      ],
      "stateMutability": "view",
      "type": "function"
    },
    {
      "inputs": [],
      "name": "endVoting",
      "outputs": [],
      "stateMutability": "nonpayable",
      "type": "function"
    },
    {
      "inputs": [
        {
          "internalType": "uint256",
          "name": "_candidateId",
          "type": "uint256"
        }
      ],
      "name": "getCandidate",
      "outputs": [
        {
          "internalType": "uint256",
          "name": "",
          "type": "uint256"
        },
        {
          "internalType": "string",
          "name": "",
          "type": "string"
        },
        {
          "internalType": "uint256",
          "name": "",
          "type": "uint256"
        }
      ],
      "stateMutability": "view",
      "type": "function"
    },
    {
      "inputs": [
        {
          "internalType": "address",
          "name": "_voter",
          "type": "address"
        }
      ],
      "name": "registerVoter",
      "outputs": [],
      "stateMutability": "nonpayable",
      "type": "function"
    },
    {
      "inputs": [],
      "name": "startVoting",
      "outputs": [],
      "stateMutability": "nonpayable",
      "type": "function"
    },
    {
      "inputs": [
        {
          "internalType": "uint256",
          "name": "_candidateId",
          "type": "uint256"
        }
      ],
      "name": "vote",
      "outputs": [],
      "stateMutability": "nonpayable",
      "type": "function"
    },
    {
      "inputs": [
        {
          "internalType": "address",
          "name": "",
          "type": "address"
        }
      ],
      "name": "voters",
      "outputs": [
        {
          "internalType": "bool",
          "name": "hasVoted",
          "type": "bool"
        },
        {
          "internalType": "uint256",
          "name": "votedCandidateId",
          "type": "uint256"
        }
      ],
      "stateMutability": "view",
      "type": "function"
    },
    {
      "inputs": [],
      "name": "votingOpen",
      "outputs": [
        {
          "internalType": "bool",
          "name": "",
          "type": "bool"
        }
      ],
      "stateMutability": "view",
      "type": "function"
    }
  ],
  "bytecode": "0x608060405234801561001057600080fd5b5033600360006101000a81548173ffffffffffffffffffffffffffffffffffffffff021916908373ffffffffffffffffffffffffffffffffffffffff1602179055506000600360146101000a81548160ff02191690831515021790555061172f8061007c6000396000f3fe608060405234801561001057600080fd5b50600436106100a95760003560e01c806338db6dd31161007157806338db6dd314610156578063462e91ec14610172578063a3ec138d1461018e578063a95824b4146101bf578063c3403ddf146101dd578063f851a440146101e7576100a9565b80630121b93f146100ae5780631ec6b60a146100ca5780632d35a8a2146100d45780633477ee2e146100f257806335b8e82014610124575b600080fd5b6100c860048036038101906100c39190610c54565b610205565b005b6100d2610420565b005b6100dc610549565b6040516100e99190610c90565b60405180910390f35b61010c60048036038101906101079190610c54565b61054f565b60405161011b93929190610d3b565b60405180910390f35b61013e60048036038101906101399190610c54565b610601565b60405161014d93929190610d3b565b60405180910390f35b610170600480360381019061016b9190610dd7565b61073b565b005b61018c60048036038101906101879190610f39565b6108e3565b005b6101a860048036038101906101a39190610dd7565b610a78565b6040516101b6929190610f9d565b60405180910390f35b6101c7610aa9565b6040516101d49190610fc6565b60405180910390f35b6101e5610abc565b005b6101ef610be4565b6040516101fc9190610ff0565b60405180910390f35b600360149054906101000a900460ff16610254576040517f08c379a000000000000000000000000000000000000000000000000000000000815260040161024b90611057565b60405180910390fd5b600160003373ffffffffffffffffffffffffffffffffffffffff1673ffffffffffffffffffffffffffffffffffffffff16815260200190815260200160002060000160009054906101000a900460ff16156102e4576040517f08c379a00000000000000000000000000000000000000000000000000000000081526004016102db906110c3565b60405180910390fd5b6000811180156102f657506002548111155b610335576040517f08c379a000000000000000000000000000000000000000000000000000000000815260040161032c9061112f565b60405180910390fd5b604051806040016040528060011515815260200182815250600160003373ffffffffffffffffffffffffffffffffffffffff1673ffffffffffffffffffffffffffffffffffffffff16815260200190815260200160002060008201518160000160006101000a81548160ff0219169083151502179055506020820151816001015590505060008082815260200190815260200160002060020160008154809291906103df9061117e565b91905055507fd0e6c39f2e086dc49f1524b47725526a56945cd1ff661f37976f1725a1e5698633826040516104159291906111c6565b60405180910390a150565b600360009054906101000a900473ffffffffffffffffffffffffffffffffffffffff1673ffffffffffffffffffffffffffffffffffffffff163373ffffffffffffffffffffffffffffffffffffffff16146104b0576040517f08c379a00000000000000000000000000000000000000000000000000000000081526004016104a790611261565b60405180910390fd5b600360149054906101000a900460ff1615610500576040517f08c379a00000000000000000000000000000000000000000000000000000000081526004016104f7906112cd565b60405180910390fd5b6001600360146101000a81548160ff0219169083151502179055507f877e2548498f42b7975a186b94ef1d32c86d420b7b806dd2be2bea293b89590460405160405180910390a1565b60025481565b60006020528060005260406000206000915090508060000154908060010180546105789061131c565b80601f01602080910402602001604051908101604052809291908181526020018280546105a49061131c565b80156105f15780601f106105c6576101008083540402835291602001916105f1565b820191906000526020600020905b8154815290600101906020018083116105d457829003601f168201915b5050505050908060020154905083565b600060606000808411801561061857506002548411155b610657576040517f08c379a000000000000000000000000000000000000000000000000000000000815260040161064e9061112f565b60405180910390fd5b6000806000868152602001908152602001600020604051806060016040529081600082015481526020016001820180546106909061131c565b80601f01602080910402602001604051908101604052809291908181526020018280546106bc9061131c565b80156107095780601f106106de57610100808354040283529160200191610709565b820191906000526020600020905b8154815290600101906020018083116106ec57829003601f168201915b505050505081526020016002820154815250509050806000015181602001518260400151935093509350509193909250565b600360009054906101000a900473ffffffffffffffffffffffffffffffffffffffff1673ffffffffffffffffffffffffffffffffffffffff163373ffffffffffffffffffffffffffffffffffffffff16146107cb576040517f08c379a00000000000000000000000000000000000000000000000000000000081526004016107c290611261565b60405180910390fd5b600160008273ffffffffffffffffffffffffffffffffffffffff1673ffffffffffffffffffffffffffffffffffffffff16815260200190815260200160002060000160009054906101000a900460ff161561085b576040517f08c379a000000000000000000000000000000000000000000000000000000000815260040161085290611399565b60405180910390fd5b60405180604001604052806000151581526020016000815250600160008373ffffffffffffffffffffffffffffffffffffffff1673ffffffffffffffffffffffffffffffffffffffff16815260200190815260200160002060008201518160000160006101000a81548160ff0219169083151502179055506020820151816001015590505050565b600360009054906101000a900473ffffffffffffffffffffffffffffffffffffffff1673ffffffffffffffffffffffffffffffffffffffff163373ffffffffffffffffffffffffffffffffffffffff1614610973576040517f08c379a000000000000000000000000000000000000000000000000000000000815260040161096a90611261565b60405180910390fd5b600360149054906101000a900460ff16156109c3576040517f08c379a00000000000000000000000000000000000000000000000000000000081526004016109ba9061142b565b60405180910390fd5b600260008154809291906109d69061117e565b91905055506040518060600160405280600254815260200182815260200160008152506000806002548152602001908152602001600020600082015181600001556020820151816001019081610a2c91906115f7565b50604082015181600201559050507fe83b2a43e7e82d975c8a0a6d2f045153c869e111136a34d1889ab7b598e396a360025482604051610a6d9291906116c9565b60405180910390a150565b60016020528060005260406000206000915090508060000160009054906101000a900460ff16908060010154905082565b600360149054906101000a900460ff1681565b600360009054906101000a900473ffffffffffffffffffffffffffffffffffffffff1673ffffffffffffffffffffffffffffffffffffffff163373ffffffffffffffffffffffffffffffffffffffff1614610b4c576040517f08c379a0000000000000000000000000000000000000000000000000000000008152600401610b4390611261565b60405180910390fd5b600360149054906101000a900460ff16610b9b576040517f08c379a0000000000000000000000000000000000000000000000000000000008152600401610b9290611057565b60405180910390fd5b6000600360146101000a81548160ff0219169083151502179055507f7a19ed057db79e3c2fa0b97a54b43bef4fce74b31bb6c01af514b9a18a7f70ab60405160405180910390a1565b600360009054906101000a900473ffffffffffffffffffffffffffffffffffffffff1681565b6000604051905090565b600080fd5b600080fd5b6000819050919050565b610c3181610c1e565b8114610c3c57600080fd5b50565b600081359050610c4e81610c28565b92915050565b600060208284031215610c6a57610c69610c14565b5b6000610c7884828501610c3f565b91505092915050565b610c8a81610c1e565b82525050565b6000602082019050610ca56000830184610c81565b92915050565b600081519050919050565b600082825260208201905092915050565b60005b83811015610ce5578082015181840152602081019050610cca565b60008484015250505050565b6000601f19601f8301169050919050565b6000610d0d82610cab565b610d178185610cb6565b9350610d27818560208601610cc7565b610d3081610cf1565b840191505092915050565b6000606082019050610d506000830186610c81565b8181036020830152610d628185610d02565b9050610d716040830184610c81565b949350505050565b600073ffffffffffffffffffffffffffffffffffffffff82169050919050565b6000610da482610d79565b9050919050565b610db481610d99565b8114610dbf57600080fd5b50565b600081359050610dd181610dab565b92915050565b600060208284031215610ded57610dec610c14565b5b6000610dfb84828501610dc2565b91505092915050565b600080fd5b600080fd5b7f4e487b7100000000000000000000000000000000000000000000000000000000600052604160045260246000fd5b610e4682610cf1565b810181811067ffffffffffffffff82111715610e6557610e64610e0e565b5b80604052505050565b6000610e78610c0a565b9050610e848282610e3d565b919050565b600067ffffffffffffffff821115610ea457610ea3610e0e565b5b610ead82610cf1565b9050602081019050919050565b82818337600083830152505050565b6000610edc610ed784610e89565b610e6e565b905082815260208101848484011115610ef857610ef7610e09565b5b610f03848285610eba565b509392505050565b600082601f830112610f2057610f1f610e04565b5b8135610f30848260208601610ec9565b91505092915050565b600060208284031215610f4f57610f4e610c14565b5b600082013567ffffffffffffffff811115610f6d57610f6c610c19565b5b610f7984828501610f0b565b91505092915050565b60008115159050919050565b610f9781610f82565b82525050565b6000604082019050610fb26000830185610f8e565b610fbf6020830184610c81565b9392505050565b6000602082019050610fdb6000830184610f8e565b92915050565b610fea81610d99565b82525050565b60006020820190506110056000830184610fe1565b92915050565b7f566f74696e67206973206e6f74206f70656e0000000000000000000000000000600082015250565b6000611041601283610cb6565b915061104c8261100b565b602082019050919050565b6000602082019050818103600083015261107081611034565b9050919050565b7f596f75206861766520616c726561647920766f74656400000000000000000000600082015250565b60006110ad601683610cb6565b91506110b882611077565b602082019050919050565b600060208201905081810360008301526110dc816110a0565b9050919050565b7f496e76616c69642063616e646964617465204944000000000000000000000000600082015250565b6000611119601483610cb6565b9150611124826110e3565b602082019050919050565b600060208201905081810360008301526111488161110c565b9050919050565b7f4e487b7100000000000000000000000000000000000000000000000000000000600052601160045260246000fd5b600061118982610c1e565b91507fffffffffffffffffffffffffffffffffffffffffffffffffffffffffffffffff82036111bb576111ba61114f565b5b600182019050919050565b60006040820190506111db6000830185610fe1565b6111e86020830184610c81565b9392505050565b7f4f6e6c792061646d696e2063616e20706572666f726d2074686973206163746960008201527f6f6e000000000000000000000000000000000000000000000000000000000000602082015250565b600061124b602283610cb6565b9150611256826111ef565b604082019050919050565b6000602082019050818103600083015261127a8161123e565b9050919050565b7f566f74696e6720697320616c7265616479206f70656e00000000000000000000600082015250565b60006112b7601683610cb6565b91506112c282611281565b602082019050919050565b600060208201905081810360008301526112e6816112aa565b9050919050565b7f4e487b7100000000000000000000000000000000000000000000000000000000600052602260045260246000fd5b6000600282049050600182168061133457607f821691505b602082108103611347576113466112ed565b5b50919050565b7f566f74657220697320616c726561647920726567697374657265640000000000600082015250565b6000611383601b83610cb6565b915061138e8261134d565b602082019050919050565b600060208201905081810360008301526113b281611376565b9050919050565b7f43616e6e6f74206164642063616e6469646174657320616674657220766f746960008201527f6e67207374617274730000000000000000000000000000000000000000000000602082015250565b6000611415602983610cb6565b9150611420826113b9565b604082019050919050565b6000602082019050818103600083015261144481611408565b9050919050565b60008190508160005260206000209050919050565b60006020601f8301049050919050565b600082821b905092915050565b6000600883026114ad7fffffffffffffffffffffffffffffffffffffffffffffffffffffffffffffffff82611470565b6114b78683611470565b95508019841693508086168417925050509392505050565b6000819050919050565b60006114f46114ef6114ea84610c1e565b6114cf565b610c1e565b9050919050565b6000819050919050565b61150e836114d9565b61152261151a826114fb565b84845461147d565b825550505050565b600090565b61153761152a565b611542818484611505565b505050565b5b818110156115665761155b60008261152f565b600181019050611548565b5050565b601f8211156115ab5761157c8161144b565b61158584611460565b81016020851015611594578190505b6115a86115a085611460565b830182611547565b50505b505050565b600082821c905092915050565b60006115ce600019846008026115b0565b1980831691505092915050565b60006115e783836115bd565b9150826002028217905092915050565b61160082610cab565b67ffffffffffffffff81111561161957611618610e0e565b5b611623825461131c565b61162e82828561156a565b600060209050601f831160018114611661576000841561164f578287015190505b61165985826115db565b8655506116c1565b601f19841661166f8661144b565b60005b8281101561169757848901518255600182019150602085019450602081019050611672565b868310156116b457848901516116b0601f8916826115bd565b8355505b6001600288020188555050505b505050505050565b60006040820190506116de6000830185610c81565b81810360208301526116f08184610d02565b9050939250505056fea2646970667358221220fa7b9a6fb2f0f7584468967d22c0484307b6d7e14eb30ba76c6e63b7ea62200164736f6c63430008150033",
  "linkReferences": {},
  "deployedLinkReferences": {}
}